:0300000002036791
:0C036700787FE4F6D8FD75813C0203AEFF
:10067B000D2AFC24BAAE66CEDEA4FEEE0002D80133
:10068B002900012200013C00C107013700C1830191
:10069B002300C10602390000C108C102C100C10913
:0906AB00C104C101C105012400D4
:10076400E4FEEF30E003D38001C392B0D2B1C2B152
:08077400EFC313FF0EBE08EAFB
:01077C00225A
:0407C700E4FFE16406
:0E079E00A8077401088002C333D8FCFFE16491
:06000300E4FF0FBF05FC45
:0100090022D4
:0E06B500AE07C2B2C2B71103D2B71103AF062F
:0206C300AE0780
:1006C500E4FDC2B2EE1392B31103D2B21103C2B26A
:0A06D5001103EEC313FE0DBD08E88B
:0106DF0022F8
:10070500E4FED2B3FDD2B2110330B30DA8057401D6
:10071500088002C333D8FC4206C2B211030DBD08DE
:03072500E4AF0638
:0107280022AE
:0D07AC001206B5F105AE07C2B71103AF0686
:0107B900221D
:0D07BA00AC051206B5AF04D1C3C2B70103F0
:10058F007F81F1ACEF547FFC7F83F1ACEF547FFBA5
:10059F007F85F1ACECC4540F75F00AA4FEEC540F38
:1005AF002EFCEBC4540F75F00AA4FEEB540F2EFB78
:1005BF00ECD3943B501EEB943B5019EFC4540F7582
:1005CF00F00AA4FEEF540F2EFFD3941750068C3C65
:0405DF008B228F29B3
:0105E30022F5
:02063700AE050E
:10063900EF75F00A84C454F0FDEF75F00A84E5F013
:100649004DFBEE75F00A84C454F0FFEE75F00A8490
:10065900E5F04FFAE4FD7F8EF1BAE4FD7F80F1BA4F
:10066900AD027F82F1BAAD037F84F1BA7D807F8EBE
:02067900E1BAE4
:100729007F81F1ACAB07EB30E714E4FD7F8EF1BAC2
:0E073900EB547FFD7F80F1BA7D807F8EF1BA98
:01074700228F
:0E078F00E4FFFE0FBF00010EEF64964E70F502
:01079D002239
:10074800E4FDE4F590F1C7AF05F19E74252DF8E6B8
:0B075800F590F18F0DBD04EAE4F59070
:010763002273
:04046D00AD07AC0625
:10047100BCFF0EBDFF0BAF358F288F278F268F2531
:1004810022EC547FFFAE05EFC4540FFBEF540FFF76
:10049100EC30E720853525EB700E742A2FF8E64401
:1004A10001F526742A2E8027742A2BF8E6F5267486
:1004B1002A2F801BEB7004AD348006742A2BF8E6DA
:1004C100FD8D25742A2FF8E64401F526742A2EF8AD
:0604D100E6F52785362840
:0104D7002202
:0203F300C2B591
:1003F500E4F516F517000517E5177002051664965E
:04040500451670F137
:10040900D2B500000000000000000000000000005C
:1004190000000000000000000000000000000000D3
:1004290000000000000000000000000000000000C3
:1004390000000000000000000000000000000000B3
:0D0449000000000000000000A2B5B3920A00
:10045600E4F516F517000517E51770020516646929
:04046600451670F1D6
:02046A00A20AE4
:01046C00226D
:1002CD00E4FEEF30E042C2B50000000000D2B50000
:1002DD000000000000000000000000000000000011
:1002ED000000000000000000000000000000000001
:1002FD0000000000000000000000000000000000F1
:10030D000000000000008040C2B5000000000000A9
:10031D0000000000000000000000000000000000D0
:10032D0000000000000000000000000000000000C0
:10033D0000000000000000000000000000000000B0
:10034D00000000000000D2B50000000000EFC31354
:09035D00FF0EEE6408600241CFBE
:010366002274
:1004D800E4FFFEEFC313FFC2B50000D2B500000071
:1004E8000000000000000030B50343078000000052
:1004F80000000000000000000000000000000000F4
:1005080000000000000000000000000000000000E3
:1005180000000000000000000000000000000000D3
:0D0528000000000000000000000EBE08A64C
:0105350022A3
:1002070071F3400241977FCC51CD7F4451CDD2B598
:10021700E4FCF14820B5040CBCC8F7F14871F34081
:1002270002806D7FCC51CD7FBE51CD91D8AD079166
:10023700D88F13EFF514EDF515E51430E736E5150E
:10024700F4FFE514F4FEEF2401F515E43EF514C4BC
:10025700F854F0C8E515C4540F48F975F00A8475C9
:10026700F010A4FFE975F00A847C00EF25F0FFEF9A
:1002770044808037E513D3940440028013E514C407
:10028700F854F0C8E515C4540F48F9D3944B40050A
:100297007EFF7FFF22E975F00A8475F010A4FFE95D
:1002A70075F00A847C00EF25F0FFEFFA7E00E51574
:1002B700540FFF7D0AF17DEEC4F854F0C8EFC45423
:0502C7000F48FFEAFEF4
:0102CC00220F
:1005360020B41BE539C39428501E0539E539B402A9
:1005460004C202D208E539B4280ED200800AE4F5C6
:1005560039300804D202C20820B51CE53AC39428F3
:100566005026053AE53AB40204C204D209E53AB483
:100576002816C205D20122E4F53A300904D204C293
:0905860009300104D205C2012272
:02000B00A1E46E
:1005E400C0E0C0D075D008758AD5758C3CE524640C
:1005F400036006E524640470230537AF37EFC39422
:10060400064005753700B20320B5160523AF23EF66
:10061400C394054011752300D206800A753700D2B1
:1006240003752300C206E52464016002B136D0D00C
:03063400D0E032E1
:1006E000E4F590C2B1C2B0F1C7758901758C3C7553
:1006F0008AD5D2B9D2A9D28CD2AFC2B7C2B2D2B344
:05070000D2B4D2B522C5
:10000D007510FF74FFF511F512900032D1E0F12952
:10001D00A924B18FE53C65106005853C10B207E55C
:10002D00241470022165147002212214606C146076
:10003D000221A5E96404600685293885223B300834
:10004D000DE4F524C208AD3BAF38D137802530091A
:10005D000F053BAF3BEFB43C03E4F53BC209801306
:10006D0030011030060D053BAF3BEFB43C03E4F51A
:10007D003BC206E53875F00A84242AF8E6F525E535
:10008D003875F00A84742A25F0F8E6F52630030257
:10009D008067AF348F288F274103E964036006859D
:1000AD00293885223B300807752404C20880253085
:1000BD00090F0538AF38EFB41803E4F538C20980DD
:1000CD001330011030060D0538AF38EFB41803E4C6
:1000DD00F538C20630031CE53875F00A84242AF879
:1000ED00E6F525E53875F00A84742A25F0F8E6F56D
:1000FD00268006AF348F268F25E53B75F00A8424C4
:10010D002AF8E6F527E53B75F00A84742A25F0F800
:10011D00E6F5284103300405E4F524C204E5227513
:10012D00F00A84242AF8E6F525E52275F00A847490
:10013D002A25F0F8E6F526E53C75F00A84242AF820
:10014D00E6F527E53C75F00A84742A25F0F8E6F506
:10015D002820070241034100C3E5829496E583946C
:10016D00004011E4F583F582C2AF51078E118F1255
:10017D00D2AFD2B5A3AF12AE11916D20B40D05392A
:10018D00AF39EF6402706FD208806B300805E4F56B
:10019D0024C208E4F539805E300407752402C204D8
:1001AD00801A30000F85293885223B752403C2083B
:1001BD00C2008008300205752401C202E52975F0E0
:1001CD000A84242AF8E6F525E52975F00A84742AAF
:1001DD0025F0F8E6F526E52275F00A84242AF8E6DE
:1001ED00F527E52275F00A84742A25F0F8E6F5283E
:0A01FD00300703432601F148011DFD
:1003730002000DE493A3F8E493A34003F68001F293
:1003830008DFF48029E493A3F85407240CC8C3338B
:10039300C4540F4420C8834004F456800146F6DF5A
:1003A300E4800B010204081020408090067BE47E69
:1003B300019360BCA3FF543F30E509541FFEE4934F
:1003C300A360010ECF54C025E060A840B8E493A316
:1003D300FAE493A3F8E493A3C8C582C8CAC583CA41
:1003E300F0A3C8C582C8CAC583CADFE9DEE780BEF9
:0106B4000045
:10077D00EF8DF0A4A8F0CF8CF0A428CE8DF0A42E90
:02078D00FE224A
:00000001FF
